{
  "contractName": "Erc20VotesControlled",
  "abi": [
    {
      "inputs": [
        {
          "internalType": "string",
          "name": "name_",
          "type": "string"
        },
        {
          "internalType": "string",
          "name": "symbol_",
          "type": "string"
        }
      ],
      "stateMutability": "nonpayable",
      "type": "constructor"
    },
    {
      "inputs": [],
      "name": "InvalidShortString",
      "type": "error"
    },
    {
      "inputs": [],
      "name": "NotTransferable",
      "type": "error"
    },
    {
      "inputs": [
        {
          "internalType": "string",
          "name": "str",
          "type": "string"
        }
      ],
      "name": "StringTooLong",
      "type": "error"
    },
    {
      "anonymous": false,
      "inputs": [
        {
          "indexed": true,
          "internalType": "address",
          "name": "owner",
          "type": "address"
        },
        {
          "indexed": true,
          "internalType": "address",
          "name": "spender",
          "type": "address"
        },
        {
          "indexed": false,
          "internalType": "uint256",
          "name": "value",
          "type": "uint256"
        }
      ],
      "name": "Approval",
      "type": "event"
    },
    {
      "anonymous": false,
      "inputs": [
        {
          "indexed": true,
          "internalType": "address",
          "name": "delegator",
          "type": "address"
        },
        {
          "indexed": true,
          "internalType": "address",
          "name": "fromDelegate",
          "type": "address"
        },
        {
          "indexed": true,
          "internalType": "address",
          "name": "toDelegate",
          "type": "address"
        }
      ],
      "name": "DelegateChanged",
      "type": "event"
    },
    {
      "anonymous": false,
      "inputs": [
        {
          "indexed": true,
          "internalType": "address",
          "name": "delegate",
          "type": "address"
        },
        {
          "indexed": false,
          "internalType": "uint256",
          "name": "previousBalance",
          "type": "uint256"
        },
        {
          "indexed": false,
          "internalType": "uint256",
          "name": "newBalance",
          "type": "uint256"
        }
      ],
      "name": "DelegateVotesChanged",
      "type": "event"
    },
    {
      "anonymous": false,
      "inputs": [],
      "name": "EIP712DomainChanged",
      "type": "event"
    },
    {
      "anonymous": false,
      "inputs": [
        {
          "indexed": true,
          "internalType": "address",
          "name": "previousOwner",
          "type": "address"
        },
        {
          "indexed": true,
          "internalType": "address",
          "name": "newOwner",
          "type": "address"
        }
      ],
      "name": "OwnershipTransferred",
      "type": "event"
    },
    {
      "anonymous": false,
      "inputs": [
        {
          "indexed": true,
          "internalType": "address",
          "name": "from",
          "type": "address"
        },
        {
          "indexed": true,
          "internalType": "address",
          "name": "to",
          "type": "address"
        },
        {
          "indexed": false,
          "internalType": "uint256",
          "name": "value",
          "type": "uint256"
        }
      ],
      "name": "Transfer",
      "type": "event"
    },
    {
      "inputs": [],
      "name": "CLOCK_MODE",
      "outputs": [
        {
          "internalType": "string",
          "name": "",
          "type": "string"
        }
      ],
      "stateMutability": "view",
      "type": "function"
    },
    {
      "inputs": [],
      "name": "DOMAIN_SEPARATOR",
      "outputs": [
        {
          "internalType": "bytes32",
          "name": "",
          "type": "bytes32"
        }
      ],
      "stateMutability": "view",
      "type": "function"
    },
    {
      "inputs": [
        {
          "internalType": "address",
          "name": "account",
          "type": "address"
        }
      ],
      "name": "balanceOf",
      "outputs": [
        {
          "internalType": "uint256",
          "name": "",
          "type": "uint256"
        }
      ],
      "stateMutability": "view",
      "type": "function"
    },
    {
      "inputs": [
        {
          "internalType": "address",
          "name": "account",
          "type": "address"
        },
        {
          "internalType": "uint32",
          "name": "pos",
          "type": "uint32"
        }
      ],
      "name": "checkpoints",
      "outputs": [
        {
          "components": [
            {
              "internalType": "uint32",
              "name": "fromBlock",
              "type": "uint32"
            },
            {
              "internalType": "uint224",
              "name": "votes",
              "type": "uint224"
            }
          ],
          "internalType": "struct ERC20Votes.Checkpoint",
          "name": "",
          "type": "tuple"
        }
      ],
      "stateMutability": "view",
      "type": "function"
    },
    {
      "inputs": [],
      "name": "clock",
      "outputs": [
        {
          "internalType": "uint48",
          "name": "",
          "type": "uint48"
        }
      ],
      "stateMutability": "view",
      "type": "function"
    },
    {
      "inputs": [
        {
          "internalType": "address",
          "name": "spender",
          "type": "address"
        },
        {
          "internalType": "uint256",
          "name": "subtractedValue",
          "type": "uint256"
        }
      ],
      "name": "decreaseAllowance",
      "outputs": [
        {
          "internalType": "bool",
          "name": "",
          "type": "bool"
        }
      ],
      "stateMutability": "nonpayable",
      "type": "function"
    },
    {
      "inputs": [
        {
          "internalType": "address",
          "name": "delegatee",
          "type": "address"
        }
      ],
      "name": "delegate",
      "outputs": [],
      "stateMutability": "nonpayable",
      "type": "function"
    },
    {
      "inputs": [
        {
          "internalType": "address",
          "name": "delegatee",
          "type": "address"
        },
        {
          "internalType": "uint256",
          "name": "nonce",
          "type": "uint256"
        },
        {
          "internalType": "uint256",
          "name": "expiry",
          "type": "uint256"
        },
        {
          "internalType": "uint8",
          "name": "v",
          "type": "uint8"
        },
        {
          "internalType": "bytes32",
          "name": "r",
          "type": "bytes32"
        },
        {
          "internalType": "bytes32",
          "name": "s",
          "type": "bytes32"
        }
      ],
      "name": "delegateBySig",
      "outputs": [],
      "stateMutability": "nonpayable",
      "type": "function"
    },
    {
      "inputs": [
        {
          "internalType": "address",
          "name": "account",
          "type": "address"
        }
      ],
      "name": "delegates",
      "outputs": [
        {
          "internalType": "address",
          "name": "",
          "type": "address"
        }
      ],
      "stateMutability": "view",
      "type": "function"
    },
    {
      "inputs": [],
      "name": "eip712Domain",
      "outputs": [
        {
          "internalType": "bytes1",
          "name": "fields",
          "type": "bytes1"
        },
        {
          "internalType": "string",
          "name": "name",
          "type": "string"
        },
        {
          "internalType": "string",
          "name": "version",
          "type": "string"
        },
        {
          "internalType": "uint256",
          "name": "chainId",
          "type": "uint256"
        },
        {
          "internalType": "address",
          "name": "verifyingContract",
          "type": "address"
        },
        {
          "internalType": "bytes32",
          "name": "salt",
          "type": "bytes32"
        },
        {
          "internalType": "uint256[]",
          "name": "extensions",
          "type": "uint256[]"
        }
      ],
      "stateMutability": "view",
      "type": "function"
    },
    {
      "inputs": [
        {
          "internalType": "uint256",
          "name": "timepoint",
          "type": "uint256"
        }
      ],
      "name": "getPastTotalSupply",
      "outputs": [
        {
          "internalType": "uint256",
          "name": "",
          "type": "uint256"
        }
      ],
      "stateMutability": "view",
      "type": "function"
    },
    {
      "inputs": [
        {
          "internalType": "address",
          "name": "account",
          "type": "address"
        },
        {
          "internalType": "uint256",
          "name": "timepoint",
          "type": "uint256"
        }
      ],
      "name": "getPastVotes",
      "outputs": [
        {
          "internalType": "uint256",
          "name": "",
          "type": "uint256"
        }
      ],
      "stateMutability": "view",
      "type": "function"
    },
    {
      "inputs": [
        {
          "internalType": "address",
          "name": "account",
          "type": "address"
        }
      ],
      "name": "getVotes",
      "outputs": [
        {
          "internalType": "uint256",
          "name": "",
          "type": "uint256"
        }
      ],
      "stateMutability": "view",
      "type": "function"
    },
    {
      "inputs": [
        {
          "internalType": "address",
          "name": "spender",
          "type": "address"
        },
        {
          "internalType": "uint256",
          "name": "addedValue",
          "type": "uint256"
        }
      ],
      "name": "increaseAllowance",
      "outputs": [
        {
          "internalType": "bool",
          "name": "",
          "type": "bool"
        }
      ],
      "stateMutability": "nonpayable",
      "type": "function"
    },
    {
      "inputs": [],
      "name": "name",
      "outputs": [
        {
          "internalType": "string",
          "name": "",
          "type": "string"
        }
      ],
      "stateMutability": "view",
      "type": "function"
    },
    {
      "inputs": [
        {
          "internalType": "address",
          "name": "owner",
          "type": "address"
        }
      ],
      "name": "nonces",
      "outputs": [
        {
          "internalType": "uint256",
          "name": "",
          "type": "uint256"
        }
      ],
      "stateMutability": "view",
      "type": "function"
    },
    {
      "inputs": [
        {
          "internalType": "address",
          "name": "account",
          "type": "address"
        }
      ],
      "name": "numCheckpoints",
      "outputs": [
        {
          "internalType": "uint32",
          "name": "",
          "type": "uint32"
        }
      ],
      "stateMutability": "view",
      "type": "function"
    },
    {
      "inputs": [],
      "name": "owner",
      "outputs": [
        {
          "internalType": "address",
          "name": "",
          "type": "address"
        }
      ],
      "stateMutability": "view",
      "type": "function"
    },
    {
      "inputs": [
        {
          "internalType": "address",
          "name": "owner",
          "type": "address"
        },
        {
          "internalType": "address",
          "name": "spender",
          "type": "address"
        },
        {
          "internalType": "uint256",
          "name": "value",
          "type": "uint256"
        },
        {
          "internalType": "uint256",
          "name": "deadline",
          "type": "uint256"
        },
        {
          "internalType": "uint8",
          "name": "v",
          "type": "uint8"
        },
        {
          "internalType": "bytes32",
          "name": "r",
          "type": "bytes32"
        },
        {
          "internalType": "bytes32",
          "name": "s",
          "type": "bytes32"
        }
      ],
      "name": "permit",
      "outputs": [],
      "stateMutability": "nonpayable",
      "type": "function"
    },
    {
      "inputs": [],
      "name": "renounceOwnership",
      "outputs": [],
      "stateMutability": "nonpayable",
      "type": "function"
    },
    {
      "inputs": [],
      "name": "symbol",
      "outputs": [
        {
          "internalType": "string",
          "name": "",
          "type": "string"
        }
      ],
      "stateMutability": "view",
      "type": "function"
    },
    {
      "inputs": [],
      "name": "totalSupply",
      "outputs": [
        {
          "internalType": "uint256",
          "name": "",
          "type": "uint256"
        }
      ],
      "stateMutability": "view",
      "type": "function"
    },
    {
      "inputs": [
        {
          "internalType": "address",
          "name": "newOwner",
          "type": "address"
        }
      ],
      "name": "transferOwnership",
      "outputs": [],
      "stateMutability": "nonpayable",
      "type": "function"
    },
    {
      "inputs": [],
      "name": "decimals",
      "outputs": [
        {
          "internalType": "uint8",
          "name": "",
          "type": "uint8"
        }
      ],
      "stateMutability": "pure",
      "type": "function"
    },
    {
      "inputs": [
        {
          "internalType": "address",
          "name": "",
          "type": "address"
        },
        {
          "internalType": "uint256",
          "name": "",
          "type": "uint256"
        }
      ],
      "name": "transfer",
      "outputs": [
        {
          "internalType": "bool",
          "name": "",
          "type": "bool"
        }
      ],
      "stateMutability": "pure",
      "type": "function"
    },
    {
      "inputs": [
        {
          "internalType": "address",
          "name": "",
          "type": "address"
        },
        {
          "internalType": "address",
          "name": "",
          "type": "address"
        },
        {
          "internalType": "uint256",
          "name": "",
          "type": "uint256"
        }
      ],
      "name": "transferFrom",
      "outputs": [
        {
          "internalType": "bool",
          "name": "",
          "type": "bool"
        }
      ],
      "stateMutability": "pure",
      "type": "function"
    },
    {
      "inputs": [
        {
          "internalType": "address",
          "name": "",
          "type": "address"
        },
        {
          "internalType": "uint256",
          "name": "",
          "type": "uint256"
        }
      ],
      "name": "approve",
      "outputs": [
        {
          "internalType": "bool",
          "name": "",
          "type": "bool"
        }
      ],
      "stateMutability": "pure",
      "type": "function"
    },
    {
      "inputs": [
        {
          "internalType": "address",
          "name": "",
          "type": "address"
        },
        {
          "internalType": "address",
          "name": "spender",
          "type": "address"
        }
      ],
      "name": "allowance",
      "outputs": [
        {
          "internalType": "uint256",
          "name": "",
          "type": "uint256"
        }
      ],
      "stateMutability": "view",
      "type": "function"
    },
    {
      "inputs": [
        {
          "internalType": "address",
          "name": "to",
          "type": "address"
        },
        {
          "internalType": "uint256",
          "name": "newBalance",
          "type": "uint256"
        }
      ],
      "name": "allot",
      "outputs": [
        {
          "internalType": "bool",
          "name": "",
          "type": "bool"
        }
      ],
      "stateMutability": "nonpayable",
      "type": "function"
    }
  ],
  "bytecode": "0x6101606040523480156200001257600080fd5b5060405162004c5638038062004c568339818101604052810190620000389190620004fe565b81806040518060400160405280600181526020017f310000000000000000000000000000000000000000000000000000000000000081525084848160039081620000839190620007ce565b508060049081620000959190620007ce565b505050620000ae6005836200017160201b90919060201c565b6101208181525050620000cc6006826200017160201b90919060201c565b6101408181525050818051906020012060e08181525050808051906020012061010081815250504660a081815250506200010b620001c960201b60201c565b608081815250503073ffffffffffffffffffffffffffffffffffffffff1660c08173ffffffffffffffffffffffffffffffffffffffff1681525050505050620001696200015d6200022660201b60201c565b6200022e60201b60201c565b505062000a9b565b600060208351101562000197576200018f83620002f460201b60201c565b9050620001c3565b82620001a9836200036160201b60201c565b6000019081620001ba9190620007ce565b5060ff60001b90505b92915050565b60007f8b73c3c69bb8fe3d512ecc4cf759cc79239f7b179b0ffacaa9a75d522b39400f60e0516101005146306040516020016200020b95949392919062000926565b60405160208183030381529060405280519060200120905090565b600033905090565b6000600c60009054906101000a900473ffffffffffffffffffffffffffffffffffffffff16905081600c60006101000a81548173ffffffffffffffffffffffffffffffffffffffff021916908373ffffffffffffffffffffffffffffffffffffffff1602179055508173ffffffffffffffffffffffffffffffffffffffff168173ffffffffffffffffffffffffffffffffffffffff167f8be0079c531659141344cd1fd0a4f28419497f9722a3daafe3b4186f6b6457e060405160405180910390a35050565b600080829050601f815111156200034457826040517f305a27a90000000000000000000000000000000000000000000000000000000081526004016200033b9190620009d5565b60405180910390fd5b805181620003529062000a2b565b60001c1760001b915050919050565b6000819050919050565b6000604051905090565b600080fd5b600080fd5b600080fd5b600080fd5b6000601f19601f8301169050919050565b7f4e487b7100000000000000000000000000000000000000000000000000000000600052604160045260246000fd5b620003d48262000389565b810181811067ffffffffffffffff82111715620003f657620003f56200039a565b5b80604052505050565b60006200040b6200036b565b9050620004198282620003c9565b919050565b600067ffffffffffffffff8211156200043c576200043b6200039a565b5b620004478262000389565b9050602081019050919050565b60005b838110156200047457808201518184015260208101905062000457565b60008484015250505050565b60006200049762000491846200041e565b620003ff565b905082815260208101848484011115620004b657620004b562000384565b5b620004c384828562000454565b509392505050565b600082601f830112620004e357620004e26200037f565b5b8151620004f584826020860162000480565b91505092915050565b6000806040838503121562000518576200051762000375565b5b600083015167ffffffffffffffff8111156200053957620005386200037a565b5b6200054785828601620004cb565b925050602083015167ffffffffffffffff8111156200056b576200056a6200037a565b5b6200057985828601620004cb565b9150509250929050565b600081519050919050565b7f4e487b7100000000000000000000000000000000000000000000000000000000600052602260045260246000fd5b60006002820490506001821680620005d657607f821691505b602082108103620005ec57620005eb6200058e565b5b50919050565b60008190508160005260206000209050919050565b60006020601f8301049050919050565b600082821b905092915050565b600060088302620006567fffffffffffffffffffffffffffffffffffffffffffffffffffffffffffffffff8262000617565b62000662868362000617565b95508019841693508086168417925050509392505050565b6000819050919050565b6000819050919050565b6000620006af620006a9620006a3846200067a565b62000684565b6200067a565b9050919050565b6000819050919050565b620006cb836200068e565b620006e3620006da82620006b6565b84845462000624565b825550505050565b600090565b620006fa620006eb565b62000707818484620006c0565b505050565b5b818110156200072f5762000723600082620006f0565b6001810190506200070d565b5050565b601f8211156200077e576200074881620005f2565b620007538462000607565b8101602085101562000763578190505b6200077b620007728562000607565b8301826200070c565b50505b505050565b600082821c905092915050565b6000620007a36000198460080262000783565b1980831691505092915050565b6000620007be838362000790565b9150826002028217905092915050565b620007d98262000583565b67ffffffffffffffff811115620007f557620007f46200039a565b5b620008018254620005bd565b6200080e82828562000733565b600060209050601f83116001811462000846576000841562000831578287015190505b6200083d8582620007b0565b865550620008ad565b601f1984166200085686620005f2565b60005b82811015620008805784890151825560018201915060208501945060208101905062000859565b86831015620008a057848901516200089c601f89168262000790565b8355505b6001600288020188555050505b505050505050565b6000819050919050565b620008ca81620008b5565b82525050565b620008db816200067a565b82525050565b600073ffffffffffffffffffffffffffffffffffffffff82169050919050565b60006200090e82620008e1565b9050919050565b620009208162000901565b82525050565b600060a0820190506200093d6000830188620008bf565b6200094c6020830187620008bf565b6200095b6040830186620008bf565b6200096a6060830185620008d0565b62000979608083018462000915565b9695505050505050565b600082825260208201905092915050565b6000620009a18262000583565b620009ad818562000983565b9350620009bf81856020860162000454565b620009ca8162000389565b840191505092915050565b60006020820190508181036000830152620009f1818462000994565b905092915050565b600081519050919050565b6000819050602082019050919050565b600062000a228251620008b5565b80915050919050565b600062000a3882620009f9565b8262000a448462000a04565b905062000a518162000a14565b9250602082101562000a945762000a8f7fffffffffffffffffffffffffffffffffffffffffffffffffffffffffffffffff8360200360080262000617565b831692505b5050919050565b60805160a05160c05160e05161010051610120516101405161416062000af66000396000610ad401526000610aa001526000611be301526000611bc2015260006112bf015260006113150152600061133e01526141606000f3fe608060405234801561001057600080fd5b50600436106101cf5760003560e01c8063715018a6116101045780639ab24eb0116100a2578063d505accf11610071578063d505accf1461059a578063dd62ed3e146105b6578063f1127ed8146105e6578063f2fde38b14610616576101cf565b80639ab24eb0146104ee578063a457c2d71461051e578063a9059cbb1461054e578063c3cda5201461057e576101cf565b80638da5cb5b116100de5780638da5cb5b146104645780638e539e8c1461048257806391ddadf4146104b257806395d89b41146104d0576101cf565b8063715018a6146104065780637ecebe001461041057806384b0196e14610440576101cf565b80633a46b1a811610171578063587cde1e1161014b578063587cde1e1461035a5780635c19a95c1461038a5780636fcfff45146103a657806370a08231146103d6576101cf565b80633a46b1a8146102dc57806340615cf81461030c5780634bf5d7e91461033c576101cf565b806323b872dd116101ad57806323b872dd14610240578063313ce567146102705780633644e5151461028e57806339509351146102ac576101cf565b806306fdde03146101d4578063095ea7b3146101f257806318160ddd14610222575b600080fd5b6101dc610632565b6040516101e99190612b79565b60405180910390f35b61020c60048036038101906102079190612c34565b6106c4565b6040516102199190612c8f565b60405180910390f35b61022a6106f8565b6040516102379190612cb9565b60405180910390f35b61025a60048036038101906102559190612cd4565b610702565b6040516102679190612c8f565b60405180910390f35b610278610736565b6040516102859190612d43565b60405180910390f35b61029661073b565b6040516102a39190612d77565b60405180910390f35b6102c660048036038101906102c19190612c34565b61074a565b6040516102d39190612c8f565b60405180910390f35b6102f660048036038101906102f19190612c34565b610781565b6040516103039190612cb9565b60405180910390f35b61032660048036038101906103219190612c34565b610824565b6040516103339190612c8f565b60405180910390f35b610344610882565b6040516103519190612b79565b60405180910390f35b610374600480360381019061036f9190612d92565b610910565b6040516103819190612dce565b60405180910390f35b6103a4600480360381019061039f9190612d92565b610979565b005b6103c060048036038101906103bb9190612d92565b61098d565b6040516103cd9190612e08565b60405180910390f35b6103f060048036038101906103eb9190612d92565b6109e1565b6040516103fd9190612cb9565b60405180910390f35b61040e610a29565b005b61042a60048036038101906104259190612d92565b610a3d565b6040516104379190612cb9565b60405180910390f35b610448610a8d565b60405161045b9796959493929190612f1c565b60405180910390f35b61046c610b8f565b6040516104799190612dce565b60405180910390f35b61049c60048036038101906104979190612fa0565b610bb9565b6040516104a99190612cb9565b60405180910390f35b6104ba610c1e565b6040516104c79190612fee565b60405180910390f35b6104d8610c2e565b6040516104e59190612b79565b60405180910390f35b61050860048036038101906105039190612d92565b610cc0565b6040516105159190612cb9565b60405180910390f35b61053860048036038101906105339190612c34565b610dc8565b6040516105459190612c8f565b60405180910390f35b61056860048036038101906105639190612c34565b610e3f565b6040516105759190612c8f565b60405180910390f35b61059860048036038101906105939190613061565b610e73565b005b6105b460048036038101906105af91906130ee565b610f77565b005b6105d060048036038101906105cb9190613190565b6110b9565b6040516105dd9190612cb9565b60405180910390f35b61060060048036038101906105fb91906131fc565b611128565b60405161060d91906132b1565b60405180910390f35b610630600480360381019061062b9190612d92565b611238565b005b606060038054610641906132fb565b80601f016020809104026020016040519081016040528092919081815260200182805461066d906132fb565b80156106ba5780601f1061068f576101008083540402835291602001916106ba565b820191906000526020600020905b81548152906001019060200180831161069d57829003601f168201915b5050505050905090565b60006040517fdc8d8db700000000000000000000000000000000000000000000000000000000815260040160405180910390fd5b6000600254905090565b60006040517fdc8d8db700000000000000000000000000000000000000000000000000000000815260040160405180910390fd5b600090565b60006107456112bb565b905090565b600080610755611372565b905061077681858561076785896110b9565b610771919061335b565b61137a565b600191505092915050565b600061078b610c1e565b65ffffffffffff1682106107d4576040517f08c379a00000000000000000000000000000000000000000000000000000000081526004016107cb906133db565b60405180910390fd5b61081c600a60008573ffffffffffffffffffffffffffffffffffffffff1673ffffffffffffffffffffffffffffffffffffffff16815260200190815260200160002083611543565b905092915050565b600061082e61168b565b6000610839846109e1565b836108449190613405565b9050600081131561085a576108598482611709565b5b600081121561087757610876848261087190613448565b611796565b5b600191505092915050565b60604361088d610c1e565b65ffffffffffff16146108d5576040517f08c379a00000000000000000000000000000000000000000000000000000000081526004016108cc906134dc565b60405180910390fd5b6040518060400160405280601d81526020017f6d6f64653d626c6f636b6e756d6265722666726f6d3d64656661756c74000000815250905090565b6000600960008373ffffffffffffffffffffffffffffffffffffffff1673ffffffffffffffffffffffffffffffffffffffff16815260200190815260200160002060009054906101000a900473ffffffffffffffffffffffffffffffffffffffff169050919050565b61098a610984611372565b826117b4565b50565b60006109da600a60008473ffffffffffffffffffffffffffffffffffffffff1673ffffffffffffffffffffffffffffffffffffffff168152602001908152602001600020805490506118ce565b9050919050565b60008060008373ffffffffffffffffffffffffffffffffffffffff1673ffffffffffffffffffffffffffffffffffffffff168152602001908152602001600020549050919050565b610a3161168b565b610a3b6000611921565b565b6000610a86600760008473ffffffffffffffffffffffffffffffffffffffff1673ffffffffffffffffffffffffffffffffffffffff1681526020019081526020016000206119e7565b9050919050565b600060608060008060006060610acd60057f00000000000000000000000000000000000000000000000000000000000000006119f590919063ffffffff16565b610b0160067f00000000000000000000000000000000000000000000000000000000000000006119f590919063ffffffff16565b46306000801b600067ffffffffffffffff811115610b2257610b216134fc565b5b604051908082528060200260200182016040528015610b505781602001602082028036833780820191505090505b507f0f00000000000000000000000000000000000000000000000000000000000000959493929190965096509650965096509650965090919293949596565b6000600c60009054906101000a900473ffffffffffffffffffffffffffffffffffffffff16905090565b6000610bc3610c1e565b65ffffffffffff168210610c0c576040517f08c379a0000000000000000000000000000000000000000000000000000000008152600401610c03906133db565b60405180910390fd5b610c17600b83611543565b9050919050565b6000610c2943611aa5565b905090565b606060048054610c3d906132fb565b80601f0160208091040260200160405190810160405280929190818152602001828054610c69906132fb565b8015610cb65780601f10610c8b57610100808354040283529160200191610cb6565b820191906000526020600020905b815481529060010190602001808311610c9957829003601f168201915b5050505050905090565b600080600a60008473ffffffffffffffffffffffffffffffffffffffff1673ffffffffffffffffffffffffffffffffffffffff16815260200190815260200160002080549050905060008114610d9f57600a60008473ffffffffffffffffffffffffffffffffffffffff1673ffffffffffffffffffffffffffffffffffffffff1681526020019081526020016000206001820381548110610d6457610d6361352b565b5b9060005260206000200160000160049054906101000a90047bffffffffffffffffffffffffffffffffffffffffffffffffffffffff16610da2565b60005b7bffffffffffffffffffffffffffffffffffffffffffffffffffffffff16915050919050565b600080610dd3611372565b90506000610de182866110b9565b905083811015610e26576040517f08c379a0000000000000000000000000000000000000000000000000000000008152600401610e1d906135cc565b60405180910390fd5b610e33828686840361137a565b60019250505092915050565b60006040517fdc8d8db700000000000000000000000000000000000000000000000000000000815260040160405180910390fd5b83421115610eb6576040517f08c379a0000000000000000000000000000000000000000000000000000000008152600401610ead90613638565b60405180910390fd5b6000610f18610f107fe48329057bfd03d55e49b547132e39cffd9c1820ad7b9d4c5307691425d15adf898989604051602001610ef59493929190613658565b60405160208183030381529060405280519060200120611afa565b858585611b14565b9050610f2381611b3f565b8614610f64576040517f08c379a0000000000000000000000000000000000000000000000000000000008152600401610f5b906136e9565b60405180910390fd5b610f6e81886117b4565b50505050505050565b83421115610fba576040517f08c379a0000000000000000000000000000000000000000000000000000000008152600401610fb190613755565b60405180910390fd5b60007f6e71edae12b1b97f4d1f60370fef10105fa2faae0126114a169c64845d6126c9888888610fe98c611b3f565b89604051602001610fff96959493929190613775565b604051602081830303815290604052805190602001209050600061102282611afa565b9050600061103282878787611b14565b90508973ffffffffffffffffffffffffffffffffffffffff168173ffffffffffffffffffffffffffffffffffffffff16146110a2576040517f08c379a000000000000000000000000000000000000000000000000000000000815260040161109990613822565b60405180910390fd5b6110ad8a8a8a61137a565b50505050505050505050565b60006110c3610b8f565b73ffffffffffffffffffffffffffffffffffffffff168273ffffffffffffffffffffffffffffffffffffffff160361111d577fffffffffffffffffffffffffffffffffffffffffffffffffffffffffffffffff9050611122565b600090505b92915050565b611130612aab565b600a60008473ffffffffffffffffffffffffffffffffffffffff1673ffffffffffffffffffffffffffffffffffffffff1681526020019081526020016000208263ffffffff16815481106111875761118661352b565b5b906000526020600020016040518060400160405290816000820160009054906101000a900463ffffffff1663ffffffff1663ffffffff1681526020016000820160049054906101000a90047bffffffffffffffffffffffffffffffffffffffffffffffffffffffff167bffffffffffffffffffffffffffffffffffffffffffffffffffffffff167bffffffffffffffffffffffffffffffffffffffffffffffffffffffff1681525050905092915050565b61124061168b565b600073ffffffffffffffffffffffffffffffffffffffff168173ffffffffffffffffffffffffffffffffffffffff16036112af576040517f08c379a00000000000000000000000000000000000000000000000000000000081526004016112a6906138b4565b60405180910390fd5b6112b881611921565b50565b60007f000000000000000000000000000000000000000000000000000000000000000073ffffffffffffffffffffffffffffffffffffffff163073ffffffffffffffffffffffffffffffffffffffff1614801561133757507f000000000000000000000000000000000000000000000000000000000000000046145b15611364577f0000000000000000000000000000000000000000000000000000000000000000905061136f565b61136c611b9d565b90505b90565b600033905090565b600073ffffffffffffffffffffffffffffffffffffffff168373ffffffffffffffffffffffffffffffffffffffff16036113e9576040517f08c379a00000000000000000000000000000000000000000000000000000000081526004016113e090613946565b60405180910390fd5b600073ffffffffffffffffffffffffffffffffffffffff168273ffffffffffffffffffffffffffffffffffffffff1603611458576040517f08c379a000000000000000000000000000000000000000000000000000000000815260040161144f906139d8565b60405180910390fd5b80600160008573ffffffffffffffffffffffffffffffffffffffff1673ffffffffffffffffffffffffffffffffffffffff16815260200190815260200160002060008473ffffffffffffffffffffffffffffffffffffffff1673ffffffffffffffffffffffffffffffffffffffff168152602001908152602001600020819055508173ffffffffffffffffffffffffffffffffffffffff168373ffffffffffffffffffffffffffffffffffffffff167f8c5be1e5ebec7d5bd14f71427d1e84f3dd0314c0f7b2291e5b200ac8c7c3b925836040516115369190612cb9565b60405180910390a3505050565b6000808380549050905060008082905060058311156115b957600061156784611c33565b8461157291906139f8565b90508561157f8883611d2c565b60000160009054906101000a900463ffffffff1663ffffffff1611156115a7578091506115b7565b6001816115b4919061335b565b92505b505b5b808210156116195760006115ce8383611d41565b9050856115db8883611d2c565b60000160009054906101000a900463ffffffff1663ffffffff16111561160357809150611613565b600181611610919061335b565b92505b506115ba565b6000811461165f5761162e8660018303611d2c565b60000160049054906101000a90047bffffffffffffffffffffffffffffffffffffffffffffffffffffffff16611662565b60005b7bffffffffffffffffffffffffffffffffffffffffffffffffffffffff16935050505092915050565b611693611372565b73ffffffffffffffffffffffffffffffffffffffff166116b1610b8f565b73ffffffffffffffffffffffffffffffffffffffff1614611707576040517f08c379a00000000000000000000000000000000000000000000000000000000081526004016116fe90613a78565b60405180910390fd5b565b6117138282611d67565b61171b611ebd565b7bffffffffffffffffffffffffffffffffffffffffffffffffffffffff166117416106f8565b1115611782576040517f08c379a000000000000000000000000000000000000000000000000000000000815260040161177990613b0a565b60405180910390fd5b611790600b611ee183611ef7565b50505050565b6117a082826121d2565b6117ae600b61239f83611ef7565b50505050565b60006117bf83610910565b905060006117cc846109e1565b905082600960008673ffffffffffffffffffffffffffffffffffffffff1673ffffffffffffffffffffffffffffffffffffffff16815260200190815260200160002060006101000a81548173ffffffffffffffffffffffffffffffffffffffff021916908373ffffffffffffffffffffffffffffffffffffffff1602179055508273ffffffffffffffffffffffffffffffffffffffff168273ffffffffffffffffffffffffffffffffffffffff168573ffffffffffffffffffffffffffffffffffffffff167f3134e8a2e6d97e929a7e54011ea5485d7d196dd5f0ba4d4ef95803e8e3fc257f60405160405180910390a46118c88284836123b5565b50505050565b600063ffffffff8016821115611919576040517f08c379a000000000000000000000000000000000000000000000000000000000815260040161191090613b9c565b60405180910390fd5b819050919050565b6000600c60009054906101000a900473ffffffffffffffffffffffffffffffffffffffff16905081600c60006101000a81548173ffffffffffffffffffffffffffffffffffffffff021916908373ffffffffffffffffffffffffffffffffffffffff1602179055508173ffffffffffffffffffffffffffffffffffffffff168173ffffffffffffffffffffffffffffffffffffffff167f8be0079c531659141344cd1fd0a4f28419497f9722a3daafe3b4186f6b6457e060405160405180910390a35050565b600081600001549050919050565b606060ff60001b8314611a1257611a0b836125ae565b9050611a9f565b818054611a1e906132fb565b80601f0160208091040260200160405190810160405280929190818152602001828054611a4a906132fb565b8015611a975780601f10611a6c57610100808354040283529160200191611a97565b820191906000526020600020905b815481529060010190602001808311611a7a57829003601f168201915b505050505090505b92915050565b600065ffffffffffff8016821115611af2576040517f08c379a0000000000000000000000000000000000000000000000000000000008152600401611ae990613c2e565b60405180910390fd5b819050919050565b6000611b0d611b076112bb565b83612622565b9050919050565b6000806000611b2587878787612663565b91509150611b3281612745565b8192505050949350505050565b600080600760008473ffffffffffffffffffffffffffffffffffffffff1673ffffffffffffffffffffffffffffffffffffffff1681526020019081526020016000209050611b8c816119e7565b9150611b97816128ab565b50919050565b60007f8b73c3c69bb8fe3d512ecc4cf759cc79239f7b179b0ffacaa9a75d522b39400f7f00000000000000000000000000000000000000000000000000000000000000007f00000000000000000000000000000000000000000000000000000000000000004630604051602001611c18959493929190613c4e565b60405160208183030381529060405280519060200120905090565b6000808203611c455760009050611d27565b60006001611c52846128c1565b901c6001901b90506001818481611c6c57611c6b613ca1565b5b048201901c90506001818481611c8557611c84613ca1565b5b048201901c90506001818481611c9e57611c9d613ca1565b5b048201901c90506001818481611cb757611cb6613ca1565b5b048201901c90506001818481611cd057611ccf613ca1565b5b048201901c90506001818481611ce957611ce8613ca1565b5b048201901c90506001818481611d0257611d01613ca1565b5b048201901c9050611d2381828581611d1d57611d1c613ca1565b5b046129a2565b9150505b919050565b60008260005281602060002001905092915050565b60006002828418611d529190613cd0565b828416611d5f919061335b565b905092915050565b600073ffffffffffffffffffffffffffffffffffffffff168273ffffffffffffffffffffffffffffffffffffffff1603611dd6576040517f08c379a0000000000000000000000000000000000000000000000000000000008152600401611dcd90613d4d565b60405180910390fd5b611de2600083836129bb565b8060026000828254611df4919061335b565b92505081905550806000808473ffffffffffffffffffffffffffffffffffffffff1673ffffffffffffffffffffffffffffffffffffffff168152602001908152602001600020600082825401925050819055508173ffffffffffffffffffffffffffffffffffffffff16600073ffffffffffffffffffffffffffffffffffffffff167fddf252ad1be2c89b69c2b068fc378daa952ba7f163c4a11628f55a4df523b3ef83604051611ea59190612cb9565b60405180910390a3611eb9600083836129c0565b5050565b60007bffffffffffffffffffffffffffffffffffffffffffffffffffffffff905090565b60008183611eef919061335b565b905092915050565b6000806000858054905090506000808214611fbd57611f198760018403611d2c565b6040518060400160405290816000820160009054906101000a900463ffffffff1663ffffffff1663ffffffff1681526020016000820160049054906101000a90047bffffffffffffffffffffffffffffffffffffffffffffffffffffffff167bffffffffffffffffffffffffffffffffffffffffffffffffffffffff167bffffffffffffffffffffffffffffffffffffffffffffffffffffffff1681525050611ff9565b6040518060400160405280600063ffffffff16815260200160007bffffffffffffffffffffffffffffffffffffffffffffffffffffffff168152505b905080602001517bffffffffffffffffffffffffffffffffffffffffffffffffffffffff16935061202e84868863ffffffff16565b92506000821180156120585750612043610c1e565b65ffffffffffff16816000015163ffffffff16145b156120c957612066836129eb565b6120738860018503611d2c565b60000160046101000a8154817bffffffffffffffffffffffffffffffffffffffffffffffffffffffff02191690837bffffffffffffffffffffffffffffffffffffffffffffffffffffffff1602179055506121c8565b8660405180604001604052806120ed6120e0610c1e565b65ffffffffffff166118ce565b63ffffffff168152602001612101866129eb565b7bffffffffffffffffffffffffffffffffffffffffffffffffffffffff168152509080600181540180825580915050600190039060005260206000200160009091909190915060008201518160000160006101000a81548163ffffffff021916908363ffffffff16021790555060208201518160000160046101000a8154817bffffffffffffffffffffffffffffffffffffffffffffffffffffffff02191690837bffffffffffffffffffffffffffffffffffffffffffffffffffffffff16021790555050505b5050935093915050565b600073ffffffffffffffffffffffffffffffffffffffff168273ffffffffffffffffffffffffffffffffffffffff1603612241576040517f08c379a000000000000000000000000000000000000000000000000000000000815260040161223890613ddf565b60405180910390fd5b61224d826000836129bb565b60008060008473ffffffffffffffffffffffffffffffffffffffff1673ffffffffffffffffffffffffffffffffffffffff168152602001908152602001600020549050818110156122d3576040517f08c379a00000000000000000000000000000000000000000000000000000000081526004016122ca90613e71565b60405180910390fd5b8181036000808573ffffffffffffffffffffffffffffffffffffffff1673ffffffffffffffffffffffffffffffffffffffff1681526020019081526020016000208190555081600260008282540392505081905550600073ffffffffffffffffffffffffffffffffffffffff168373ffffffffffffffffffffffffffffffffffffffff167fddf252ad1be2c89b69c2b068fc378daa952ba7f163c4a11628f55a4df523b3ef846040516123869190612cb9565b60405180910390a361239a836000846129c0565b505050565b600081836123ad91906139f8565b905092915050565b8173ffffffffffffffffffffffffffffffffffffffff168373ffffffffffffffffffffffffffffffffffffffff16141580156123f15750600081115b156125a957600073ffffffffffffffffffffffffffffffffffffffff168373ffffffffffffffffffffffffffffffffffffffff16146124cf57600080612478600a60008773ffffffffffffffffffffffffffffffffffffffff1673ffffffffffffffffffffffffffffffffffffffff16815260200190815260200160002061239f85611ef7565b915091508473ffffffffffffffffffffffffffffffffffffffff167fdec2bacdd2f05b59de34da9b523dff8be42e5e38e818c82fdb0bae774387a72483836040516124c4929190613e91565b60405180910390a250505b600073ffffffffffffffffffffffffffffffffffffffff168273ffffffffffffffffffffffffffffffffffffffff16146125a857600080612551600a60008673ffffffffffffffffffffffffffffffffffffffff1673ffffffffffffffffffffffffffffffffffffffff168152602001908152602001600020611ee185611ef7565b915091508373ffffffffffffffffffffffffffffffffffffffff167fdec2bacdd2f05b59de34da9b523dff8be42e5e38e818c82fdb0bae774387a724838360405161259d929190613e91565b60405180910390a250505b5b505050565b606060006125bb83612a56565b90506000602067ffffffffffffffff8111156125da576125d96134fc565b5b6040519080825280601f01601f19166020018201604052801561260c5781602001600182028036833780820191505090505b5090508181528360208201528092505050919050565b60006040517f190100000000000000000000000000000000000000000000000000000000000081528360028201528260228201526042812091505092915050565b6000807f7fffffffffffffffffffffffffffffff5d576e7357a4501ddfe92f46681b20a08360001c111561269e57600060039150915061273c565b6000600187878787604051600081526020016040526040516126c39493929190613eba565b6020604051602081039080840390855afa1580156126e5573d6000803e3d6000fd5b505050602060405103519050600073ffffffffffffffffffffffffffffffffffffffff168173ffffffffffffffffffffffffffffffffffffffff16036127335760006001925092505061273c565b80600092509250505b94509492505050565b6000600481111561275957612758613eff565b5b81600481111561276c5761276b613eff565b5b03156128a8576001600481111561278657612785613eff565b5b81600481111561279957612798613eff565b5b036127d9576040517f08c379a00000000000000000000000000000000000000000000000000000000081526004016127d090613f7a565b60405180910390fd5b600260048111156127ed576127ec613eff565b5b816004811115612800576127ff613eff565b5b03612840576040517f08c379a000000000000000000000000000000000000000000000000000000000815260040161283790613fe6565b60405180910390fd5b6003600481111561285457612853613eff565b5b81600481111561286757612866613eff565b5b036128a7576040517f08c379a000000000000000000000000000000000000000000000000000000000815260040161289e90614078565b60405180910390fd5b5b50565b6001816000016000828254019250508190555050565b600080600090506000608084901c11156128e357608083901c92506080810190505b6000604084901c11156128fe57604083901c92506040810190505b6000602084901c111561291957602083901c92506020810190505b6000601084901c111561293457601083901c92506010810190505b6000600884901c111561294f57600883901c92506008810190505b6000600484901c111561296a57600483901c92506004810190505b6000600284901c111561298557600283901c92506002810190505b6000600184901c1115612999576001810190505b80915050919050565b60008183106129b157816129b3565b825b905092915050565b505050565b6129cb838383612aa6565b6129e66129d784610910565b6129e084610910565b836123b5565b505050565b60007bffffffffffffffffffffffffffffffffffffffffffffffffffffffff8016821115612a4e576040517f08c379a0000000000000000000000000000000000000000000000000000000008152600401612a459061410a565b60405180910390fd5b819050919050565b60008060ff8360001c169050601f811115612a9d576040517fb3512b0c00000000000000000000000000000000000000000000000000000000815260040160405180910390fd5b80915050919050565b505050565b6040518060400160405280600063ffffffff16815260200160007bffffffffffffffffffffffffffffffffffffffffffffffffffffffff1681525090565b600081519050919050565b600082825260208201905092915050565b60005b83811015612b23578082015181840152602081019050612b08565b60008484015250505050565b6000601f19601f8301169050919050565b6000612b4b82612ae9565b612b558185612af4565b9350612b65818560208601612b05565b612b6e81612b2f565b840191505092915050565b60006020820190508181036000830152612b938184612b40565b905092915050565b600080fd5b600073ffffffffffffffffffffffffffffffffffffffff82169050919050565b6000612bcb82612ba0565b9050919050565b612bdb81612bc0565b8114612be657600080fd5b50565b600081359050612bf881612bd2565b92915050565b6000819050919050565b612c1181612bfe565b8114612c1c57600080fd5b50565b600081359050612c2e81612c08565b92915050565b60008060408385031215612c4b57612c4a612b9b565b5b6000612c5985828601612be9565b9250506020612c6a85828601612c1f565b9150509250929050565b60008115159050919050565b612c8981612c74565b82525050565b6000602082019050612ca46000830184612c80565b92915050565b612cb381612bfe565b82525050565b6000602082019050612cce6000830184612caa565b92915050565b600080600060608486031215612ced57612cec612b9b565b5b6000612cfb86828701612be9565b9350506020612d0c86828701612be9565b9250506040612d1d86828701612c1f565b9150509250925092565b600060ff82169050919050565b612d3d81612d27565b82525050565b6000602082019050612d586000830184612d34565b92915050565b6000819050919050565b612d7181612d5e565b82525050565b6000602082019050612d8c6000830184612d68565b92915050565b600060208284031215612da857612da7612b9b565b5b6000612db684828501612be9565b91505092915050565b612dc881612bc0565b82525050565b6000602082019050612de36000830184612dbf565b92915050565b600063ffffffff82169050919050565b612e0281612de9565b82525050565b6000602082019050612e1d6000830184612df9565b92915050565b60007fff0000000000000000000000000000000000000000000000000000000000000082169050919050565b612e5881612e23565b82525050565b600081519050919050565b600082825260208201905092915050565b6000819050602082019050919050565b612e9381612bfe565b82525050565b6000612ea58383612e8a565b60208301905092915050565b6000602082019050919050565b6000612ec982612e5e565b612ed38185612e69565b9350612ede83612e7a565b8060005b83811015612f0f578151612ef68882612e99565b9750612f0183612eb1565b925050600181019050612ee2565b5085935050505092915050565b600060e082019050612f31600083018a612e4f565b8181036020830152612f438189612b40565b90508181036040830152612f578188612b40565b9050612f666060830187612caa565b612f736080830186612dbf565b612f8060a0830185612d68565b81810360c0830152612f928184612ebe565b905098975050505050505050565b600060208284031215612fb657612fb5612b9b565b5b6000612fc484828501612c1f565b91505092915050565b600065ffffffffffff82169050919050565b612fe881612fcd565b82525050565b60006020820190506130036000830184612fdf565b92915050565b61301281612d27565b811461301d57600080fd5b50565b60008135905061302f81613009565b92915050565b61303e81612d5e565b811461304957600080fd5b50565b60008135905061305b81613035565b92915050565b60008060008060008060c0878903121561307e5761307d612b9b565b5b600061308c89828a01612be9565b965050602061309d89828a01612c1f565b95505060406130ae89828a01612c1f565b94505060606130bf89828a01613020565b93505060806130d089828a0161304c565b92505060a06130e189828a0161304c565b9150509295509295509295565b600080600080600080600060e0888a03121561310d5761310c612b9b565b5b600061311b8a828b01612be9565b975050602061312c8a828b01612be9565b965050604061313d8a828b01612c1f565b955050606061314e8a828b01612c1f565b945050608061315f8a828b01613020565b93505060a06131708a828b0161304c565b92505060c06131818a828b0161304c565b91505092959891949750929550565b600080604083850312156131a7576131a6612b9b565b5b60006131b585828601612be9565b92505060206131c685828601612be9565b9150509250929050565b6131d981612de9565b81146131e457600080fd5b50565b6000813590506131f6816131d0565b92915050565b6000806040838503121561321357613212612b9b565b5b600061322185828601612be9565b9250506020613232858286016131e7565b9150509250929050565b61324581612de9565b82525050565b60007bffffffffffffffffffffffffffffffffffffffffffffffffffffffff82169050919050565b61327c8161324b565b82525050565b604082016000820151613298600085018261323c565b5060208201516132ab6020850182613273565b50505050565b60006040820190506132c66000830184613282565b92915050565b7f4e487b7100000000000000000000000000000000000000000000000000000000600052602260045260246000fd5b6000600282049050600182168061331357607f821691505b602082108103613326576133256132cc565b5b50919050565b7f4e487b7100000000000000000000000000000000000000000000000000000000600052601160045260246000fd5b600061336682612bfe565b915061337183612bfe565b92508282019050808211156133895761338861332c565b5b92915050565b7f4552433230566f7465733a20667574757265206c6f6f6b757000000000000000600082015250565b60006133c5601983612af4565b91506133d08261338f565b602082019050919050565b600060208201905081810360008301526133f4816133b8565b9050919050565b6000819050919050565b6000613410826133fb565b915061341b836133fb565b92508282039050818112600084121682821360008512151617156134425761344161332c565b5b92915050565b6000613453826133fb565b91507f800000000000000000000000000000000000000000000000000000000000000082036134855761348461332c565b5b816000039050919050565b7f4552433230566f7465733a2062726f6b656e20636c6f636b206d6f6465000000600082015250565b60006134c6601d83612af4565b91506134d182613490565b602082019050919050565b600060208201905081810360008301526134f5816134b9565b9050919050565b7f4e487b7100000000000000000000000000000000000000000000000000000000600052604160045260246000fd5b7f4e487b7100000000000000000000000000000000000000000000000000000000600052603260045260246000fd5b7f45524332303a2064656372656173656420616c6c6f77616e63652062656c6f7760008201527f207a65726f000000000000000000000000000000000000000000000000000000602082015250565b60006135b6602583612af4565b91506135c18261355a565b604082019050919050565b600060208201905081810360008301526135e5816135a9565b9050919050565b7f4552433230566f7465733a207369676e61747572652065787069726564000000600082015250565b6000613622601d83612af4565b915061362d826135ec565b602082019050919050565b6000602082019050818103600083015261365181613615565b9050919050565b600060808201905061366d6000830187612d68565b61367a6020830186612dbf565b6136876040830185612caa565b6136946060830184612caa565b95945050505050565b7f4552433230566f7465733a20696e76616c6964206e6f6e636500000000000000600082015250565b60006136d3601983612af4565b91506136de8261369d565b602082019050919050565b60006020820190508181036000830152613702816136c6565b9050919050565b7f45524332305065726d69743a206578706972656420646561646c696e65000000600082015250565b600061373f601d83612af4565b915061374a82613709565b602082019050919050565b6000602082019050818103600083015261376e81613732565b9050919050565b600060c08201905061378a6000830189612d68565b6137976020830188612dbf565b6137a46040830187612dbf565b6137b16060830186612caa565b6137be6080830185612caa565b6137cb60a0830184612caa565b979650505050505050565b7f45524332305065726d69743a20696e76616c6964207369676e61747572650000600082015250565b600061380c601e83612af4565b9150613817826137d6565b602082019050919050565b6000602082019050818103600083015261383b816137ff565b9050919050565b7f4f776e61626c653a206e6577206f776e657220697320746865207a65726f206160008201527f6464726573730000000000000000000000000000000000000000000000000000602082015250565b600061389e602683612af4565b91506138a982613842565b604082019050919050565b600060208201905081810360008301526138cd81613891565b9050919050565b7f45524332303a20617070726f76652066726f6d20746865207a65726f2061646460008201527f7265737300000000000000000000000000000000000000000000000000000000602082015250565b6000613930602483612af4565b915061393b826138d4565b604082019050919050565b6000602082019050818103600083015261395f81613923565b9050919050565b7f45524332303a20617070726f766520746f20746865207a65726f20616464726560008201527f7373000000000000000000000000000000000000000000000000000000000000602082015250565b60006139c2602283612af4565b91506139cd82613966565b604082019050919050565b600060208201905081810360008301526139f1816139b5565b9050919050565b6000613a0382612bfe565b9150613a0e83612bfe565b9250828203905081811115613a2657613a2561332c565b5b92915050565b7f4f776e61626c653a2063616c6c6572206973206e6f7420746865206f776e6572600082015250565b6000613a62602083612af4565b9150613a6d82613a2c565b602082019050919050565b60006020820190508181036000830152613a9181613a55565b9050919050565b7f4552433230566f7465733a20746f74616c20737570706c79207269736b73206f60008201527f766572666c6f77696e6720766f74657300000000000000000000000000000000602082015250565b6000613af4603083612af4565b9150613aff82613a98565b604082019050919050565b60006020820190508181036000830152613b2381613ae7565b9050919050565b7f53616665436173743a2076616c756520646f65736e27742066697420696e203360008201527f3220626974730000000000000000000000000000000000000000000000000000602082015250565b6000613b86602683612af4565b9150613b9182613b2a565b604082019050919050565b60006020820190508181036000830152613bb581613b79565b9050919050565b7f53616665436173743a2076616c756520646f65736e27742066697420696e203460008201527f3820626974730000000000000000000000000000000000000000000000000000602082015250565b6000613c18602683612af4565b9150613c2382613bbc565b604082019050919050565b60006020820190508181036000830152613c4781613c0b565b9050919050565b600060a082019050613c636000830188612d68565b613c706020830187612d68565b613c7d6040830186612d68565b613c8a6060830185612caa565b613c976080830184612dbf565b9695505050505050565b7f4e487b7100000000000000000000000000000000000000000000000000000000600052601260045260246000fd5b6000613cdb82612bfe565b9150613ce683612bfe565b925082613cf657613cf5613ca1565b5b828204905092915050565b7f45524332303a206d696e7420746f20746865207a65726f206164647265737300600082015250565b6000613d37601f83612af4565b9150613d4282613d01565b602082019050919050565b60006020820190508181036000830152613d6681613d2a565b9050919050565b7f45524332303a206275726e2066726f6d20746865207a65726f2061646472657360008201527f7300000000000000000000000000000000000000000000000000000000000000602082015250565b6000613dc9602183612af4565b9150613dd482613d6d565b604082019050919050565b60006020820190508181036000830152613df881613dbc565b9050919050565b7f45524332303a206275726e20616d6f756e7420657863656564732062616c616e60008201527f6365000000000000000000000000000000000000000000000000000000000000602082015250565b6000613e5b602283612af4565b9150613e6682613dff565b604082019050919050565b60006020820190508181036000830152613e8a81613e4e565b9050919050565b6000604082019050613ea66000830185612caa565b613eb36020830184612caa565b9392505050565b6000608082019050613ecf6000830187612d68565b613edc6020830186612d34565b613ee96040830185612d68565b613ef66060830184612d68565b95945050505050565b7f4e487b7100000000000000000000000000000000000000000000000000000000600052602160045260246000fd5b7f45434453413a20696e76616c6964207369676e61747572650000000000000000600082015250565b6000613f64601883612af4565b9150613f6f82613f2e565b602082019050919050565b60006020820190508181036000830152613f9381613f57565b9050919050565b7f45434453413a20696e76616c6964207369676e6174757265206c656e67746800600082015250565b6000613fd0601f83612af4565b9150613fdb82613f9a565b602082019050919050565b60006020820190508181036000830152613fff81613fc3565b9050919050565b7f45434453413a20696e76616c6964207369676e6174757265202773272076616c60008201527f7565000000000000000000000000000000000000000000000000000000000000602082015250565b6000614062602283612af4565b915061406d82614006565b604082019050919050565b6000602082019050818103600083015261409181614055565b9050919050565b7f53616665436173743a2076616c756520646f65736e27742066697420696e203260008201527f3234206269747300000000000000000000000000000000000000000000000000602082015250565b60006140f4602783612af4565b91506140ff82614098565b604082019050919050565b60006020820190508181036000830152614123816140e7565b905091905056fea264697066735822122044e1d549f34a7a075696ff95726bed7ba2875cdda9e7cd7ab23c9e51a3beb0ea64736f6c63430008130033",
  "immutableReferences": {
    "2905": [
      {
        "length": 32,
        "start": 4926
      }
    ],
    "2907": [
      {
        "length": 32,
        "start": 4885
      }
    ],
    "2909": [
      {
        "length": 32,
        "start": 4799
      }
    ],
    "2911": [
      {
        "length": 32,
        "start": 7106
      }
    ],
    "2913": [
      {
        "length": 32,
        "start": 7139
      }
    ],
    "2916": [
      {
        "length": 32,
        "start": 2720
      }
    ],
    "2919": [
      {
        "length": 32,
        "start": 2772
      }
    ]
  },
  "source": "// SPDX-License-Identifier: MIT\npragma solidity >=0.4.22 <0.9.0;\n\nimport \"@openzeppelin/contracts/token/ERC20/ERC20.sol\";\nimport \"@openzeppelin/contracts/token/ERC20/extensions/ERC20Permit.sol\";\nimport \"@openzeppelin/contracts/token/ERC20/extensions/ERC20Votes.sol\";\nimport \"@openzeppelin/contracts/access/Ownable.sol\";\n\ncontract Erc20VotesControlled is ERC20Votes, Ownable {\n  error NotTransferable();\n  \n  constructor(string memory name_, string memory symbol_) ERC20Permit(name_) ERC20(name_, symbol_) Ownable() {\n  }\n  \n  function decimals() public pure override returns (uint8) {\n    return 0;\n  }\n  \n  function transfer(address, uint) public pure override returns (bool) {\n    revert NotTransferable();\n  }\n  \n  function transferFrom(address, address, uint256) public pure override returns (bool) {\n    revert NotTransferable();\n  }\n  \n  function approve(address, uint256) public pure override returns (bool) {\n    revert NotTransferable();\n  }\n  \n  function allowance(address, address spender) public view override returns (uint256) {\n    if (spender == super.owner()) {\n      return type(uint256).max;\n    } else {\n      return 0;\n    }\n  }\n  \n  function allot(address to, uint256 newBalance) public onlyOwner returns (bool) {\n    int256 delta = int256(newBalance) - int256(super.balanceOf(to));\n    if (delta > 0) {\n      _mint(to, uint256(delta));\n    }\n    if (delta < 0) {\n      _burn(to, uint256(-delta));\n    }\n    return true;\n  }\n  \n}\n",
  "sourcePath": "/Volumes/Externe/Projets/daoscord/web3/contracts/Erc20VotesControlled.sol",
  "compiler": {
    "name": "solc",
    "version": "0.8.19+commit.7dd6d404.Emscripten.clang"
  },
  "schemaVersion": "3.4.14",
  "updatedAt": "2023-07-22T15:06:26.127Z",
  "devdoc": {
    "events": {
      "Approval(address,address,uint256)": {
        "details": "Emitted when the allowance of a `spender` for an `owner` is set by a call to {approve}. `value` is the new allowance."
      },
      "DelegateChanged(address,address,address)": {
        "details": "Emitted when an account changes their delegate."
      },
      "DelegateVotesChanged(address,uint256,uint256)": {
        "details": "Emitted when a token transfer or delegate change results in changes to a delegate's number of votes."
      },
      "EIP712DomainChanged()": {
        "details": "MAY be emitted to signal that the domain could have changed."
      },
      "Transfer(address,address,uint256)": {
        "details": "Emitted when `value` tokens are moved from one account (`from`) to another (`to`). Note that `value` may be zero."
      }
    },
    "kind": "dev",
    "methods": {
      "CLOCK_MODE()": {
        "details": "Description of the clock"
      },
      "DOMAIN_SEPARATOR()": {
        "details": "See {IERC20Permit-DOMAIN_SEPARATOR}."
      },
      "balanceOf(address)": {
        "details": "See {IERC20-balanceOf}."
      },
      "checkpoints(address,uint32)": {
        "details": "Get the `pos`-th checkpoint for `account`."
      },
      "clock()": {
        "details": "Clock used for flagging checkpoints. Can be overridden to implement timestamp based checkpoints (and voting)."
      },
      "decimals()": {
        "details": "Returns the number of decimals used to get its user representation. For example, if `decimals` equals `2`, a balance of `505` tokens should be displayed to a user as `5.05` (`505 / 10 ** 2`). Tokens usually opt for a value of 18, imitating the relationship between Ether and Wei. This is the default value returned by this function, unless it's overridden. NOTE: This information is only used for _display_ purposes: it in no way affects any of the arithmetic of the contract, including {IERC20-balanceOf} and {IERC20-transfer}."
      },
      "decreaseAllowance(address,uint256)": {
        "details": "Atomically decreases the allowance granted to `spender` by the caller. This is an alternative to {approve} that can be used as a mitigation for problems described in {IERC20-approve}. Emits an {Approval} event indicating the updated allowance. Requirements: - `spender` cannot be the zero address. - `spender` must have allowance for the caller of at least `subtractedValue`."
      },
      "delegate(address)": {
        "details": "Delegate votes from the sender to `delegatee`."
      },
      "delegateBySig(address,uint256,uint256,uint8,bytes32,bytes32)": {
        "details": "Delegates votes from signer to `delegatee`"
      },
      "delegates(address)": {
        "details": "Get the address `account` is currently delegating to."
      },
      "eip712Domain()": {
        "details": "See {EIP-5267}. _Available since v4.9._"
      },
      "getPastTotalSupply(uint256)": {
        "details": "Retrieve the `totalSupply` at the end of `timepoint`. Note, this value is the sum of all balances. It is NOT the sum of all the delegated votes! Requirements: - `timepoint` must be in the past"
      },
      "getPastVotes(address,uint256)": {
        "details": "Retrieve the number of votes for `account` at the end of `timepoint`. Requirements: - `timepoint` must be in the past"
      },
      "getVotes(address)": {
        "details": "Gets the current votes balance for `account`"
      },
      "increaseAllowance(address,uint256)": {
        "details": "Atomically increases the allowance granted to `spender` by the caller. This is an alternative to {approve} that can be used as a mitigation for problems described in {IERC20-approve}. Emits an {Approval} event indicating the updated allowance. Requirements: - `spender` cannot be the zero address."
      },
      "name()": {
        "details": "Returns the name of the token."
      },
      "nonces(address)": {
        "details": "See {IERC20Permit-nonces}."
      },
      "numCheckpoints(address)": {
        "details": "Get number of checkpoints for `account`."
      },
      "owner()": {
        "details": "Returns the address of the current owner."
      },
      "permit(address,address,uint256,uint256,uint8,bytes32,bytes32)": {
        "details": "See {IERC20Permit-permit}."
      },
      "renounceOwnership()": {
        "details": "Leaves the contract without owner. It will not be possible to call `onlyOwner` functions. Can only be called by the current owner. NOTE: Renouncing ownership will leave the contract without an owner, thereby disabling any functionality that is only available to the owner."
      },
      "symbol()": {
        "details": "Returns the symbol of the token, usually a shorter version of the name."
      },
      "totalSupply()": {
        "details": "See {IERC20-totalSupply}."
      },
      "transferOwnership(address)": {
        "details": "Transfers ownership of the contract to a new account (`newOwner`). Can only be called by the current owner."
      }
    },
    "version": 1
  },
  "userdoc": {
    "kind": "user",
    "methods": {},
    "version": 1
  }
}